:020000040800F2
:1000000000200020C1000008910100081302000830
:1000100000000000000000000000000000000000E0
:100020000000000000000000000000009101000836
:10003000000000000000000091010008910100088C
:100040009101000891010008910100089101000848
:100050009101000891010008910100089101000838
:100060009101000891010008910100089101000828
:100070009101000891010008910100089101000818
:100080009101000891010008910100089101000808
:1000900091010008910100089101000891010008F8
:1000A00091010008910100089101000891010008E8
:1000B00091010008910100089101000891010008D8
:1000C0000148864602E00000FFFFFFFF80B500AF59
:1000D00000F05FF809480A49814202D2002204C1B7
:1000E000FAE708480849814204D2084A08CA08C108
:1000F0008142FBD300F00CF8FEDEC0460400002075
:100100000000002000000020000000208002000805
:1001100080B500AF00F002F8FEDED4D480B500AFA9
:1001200000F016F8002806D0084801214A030260B2
:1001300009030161F9E703482B21034A00F040F865
:10014000FEDEC046280200086002000818080048C9
:10015000D0B502AF82B000F025F80124204001A9FB
:10016000087000F01BF800F020F80848017800291A
:1001700001D0002400E0047001A800F00BF8002872
:1001800001D000F00DF8204602B0D0BD00000020E4
:10019000FEE77047017848424841704772B67047A1
:1001A00062B67047EFF31080704770477047D4D441
:1001B000014802497047C046938EA95D7E76EAAD3C
:1001C00080B500AF88B000230593074C04940393D7
:1001D00002930123019306AB0093079106906846B2
:1001E000114600F003F8FEDE7002000880B500AF93
:1001F00084B003910290044801900448009068463E
:1002000000F006F8FEDEC04670020008700200082A
:10021000FEE770460421084202D1EFF3088002E0B5
:08022000EFF30980FFE7FEE7A0
:1002280063616C6C656420604F7074696F6E3A3AF4
:10023800756E77726170282960206F6E206120606A
:100248004E6F6E65602076616C75657372632F6D95
:1002580061696E2E72730000530200080B000000E3
:100268002100000031000000AD010008000000007E
:0802780001000000B1010008C3
:04000005080000CD22
:00000001FF
